:08000000803102288731F32F43
:100D84000134003429001E13080016302100970096
:100D940008007A30210099002200960108004030B2
:100DA40029009E0001309F009A01990198019C013D
:100DB40083309B009E1708008731002786318631D7
:100DC400CB2686318631C72686318631D1268631B7
:100DD400080029001E177108F3007008F200F336AA
:100DE400F20CF336F20CF336F20C7208F0007308CE
:100DF400F10070089B0071089C00080022008C011F
:100E04008D018E013F3021008C00F0308D00C53003
:100E14008E00C03023008E008D0117308C0024001A
:100E24008D018C012100951322009D010800F5011C
:100E3400302F20008E1270080139F400F40E0E08D1
:100E44007406EF3974068E000130F136F00C890B0C
:100E5400272F8E160130F4007408F5077308803AC2
:100E6400803C031D372F72087502031C3A2F3B2F59
:100E74001B2F20008E128E158E11080020000E18D4
:100E8400442F452F6A2F7908031D492F4A2F6A2FB3
:100E94000130FB36FA0C890B4B2F7A087B04031DB7
:100EA400542F552F592F0030FA000230FB00F9015E
:100EB400F90AF430F0000130F1008631EB26873175
:100EC4003430F400F230890B652FF40B652F782F42
:100ED4000E1C6D2F6E2F782F79080319722F732F24
:100EE400782FF9018631C4268731622F080020004B
:100EF4000E197D2F7E2FA42F7808031D822F832F98
:100F0400A42F0130FA35FB0D890B842F04307B06A6
:100F14007A04031D8E2F8F2F932F0130FA00003097
:100F2400FB00F801F80AF430F0000130F1008631DA
:100F3400EB2687313430F400F230890B9F2FF40B09
:100F44009F2FB22F0E1DA72FA82FB22F7808031999
:100F5400AC2FAD2FB22FF8018631C42687319C2FD8
:100F640008008631DE268731D030F0000730F100EA
:100F74008631EB2687310330F7000830F6007730EE
:100F8400890BC22FF60BC22FF70BC22F0000E830DB
:100F9400F0000330F1008631EB2687310330F7008F
:100FA4000830F6007730890BD52FF60BD52FF70BC9
:100FB400D52F00008631C4268731873140278731F9
:100FC4008731792787317B08F1007A08F0000A30ED
:100FD400F2000030F300873119278731DF2F803189
:100FE40002288631C2268731FA008631C32687312A
:0C0FF400FB00F801F90120008731B32F49
:020000040001F9
:08000000FF3FFF3FFF3FFF3F00
:04000E00E43FFF3F8D
:00000001FF
