:1000000080311328013400347E1480318B1E09287E
:100010000A2811280B1D0D280E2811288F31EF27D3
:1000200080317E100900803115289E3084008F3089
:1000300085001200EB001200EC001200ED0012002F
:10004000EE001200EF002100803102208031A2007A
:10005000803103208031A300FC015930840000303E
:10006000850012308F31AF2780317E102000803123
:1000700039288F31DF278031D030F1000730F2008E
:100080008731D627803103302000CE000830CD00E4
:100090007730890B4928CD0B4928CE0B4928E83009
:1000A000F1000330F2008731D62780310330200081
:1000B000CE000830CD007730890B5C28CD0B5C2852
:1000C000CE0B5C288731FD2780312100A201A301DE
:1000D0002000ED01EE013230EB000030EC00033087
:1000E000CD004D08EF00DB01DC01E001DF016E080F
:1000F000B3006D08B2000F30B4000030B500873196
:1001000015278031FB288930F7000430F8000030D3
:10011000F900FA008631942680318930F7000430E6
:10012000F8000030F900FA008631C02680318030B6
:1001300020006E02003003196D02031CA028A128C4
:10014000AF2820308631EC26803120002A080F3974
:10015000890AAC28EE36ED0C890BAA28D1281B3071
:10016000AC000030AD0020308631EC26803120001C
:100170002B08AF002A08AE008531F8258031200019
:100180002C08ED072D08EE3D20308631EC2680311D
:1001900020002A080139890ACF28ED35EE0D890B98
:1001A000CD28FF306D05F1000F306E05F20087316C
:1001B000D627803182302000CD00DD30890BDE284B
:1001C000CD0BDE2800328731FD27803182302000C0
:1001D000CD00DD30890BEA28CD0BEA280032200063
:1001E0006E08B3006D08B2000F30B4000030B500E7
:1001F0008731152780312000620803190029012961
:1002000083288731FD2780312000ED01EE01813107
:10021000FC218031F0290030ED000230EE006C2925
:10022000C630F7000F30F8000030F900FA008631D0
:10023000C026803120005F0803191F2920292429A6
:1002400087318227803127298731602780318431A7
:10025000E52480312030F1000330F2008731D627C9
:1002600080312000CF01D001432906302000CD008D
:100270003030890B3929CD0B39290000013020009D
:10028000CF070030D03D6C085002031D49296B0890
:100290004F02031C4C294D2935298731FD27803118
:1002A0002000D101D201622906302000CD0030307B
:1002B000890B5829CD0B5829000001302000D107A7
:1002C0000030D23D6C085202031D68296B085102B0
:1002D000031C6B296C2954290E186F2970291029C9
:1002E0006C08D8006B08D70000305802653003193D
:1002F0005702031C7C297D297E29ED295F080319FB
:100300008229832987298731822780318A29873169
:10031000602780318431E52480312030F1000330C2
:10032000F2008731D62780312000D301D401A629DD
:1003300006302000CD003030890B9C29CD0B9C2944
:10034000000001302000D3070030D43D580854028B
:10035000031DAC2957085302031CAF29B029982963
:100360008731FD2780312000D501D601C52906300F
:100370002000CD003030890BBB29CD0BBB290000FC
:1003800001302000D5070030D63D58085602031D25
:10039000CB2957085502031CCE29CF29B7290F3086
:1003A000AC000030AD0008308631EC2680312000F2
:1003B0002B08AF002A08AE008531F82580312000D7
:1003C0002C08D7072D08D83D003058026530031996
:1003D0005702031CEC29ED297E2985313A2580310D
:1003E00020006208031DF529F6290B298331152306
:1003F00080316528803113288731FD278131003015
:100400002000B200B3000F30B4000030B5008731D7
:10041000152781310B302000B9002630B8005D303F
:10042000890B102AB80B102AB90B102A00322000B1
:10043000BE011830B8003808BF001C303F05B800B6
:1004400024303804B2004030B3000F30B400003024
:10045000B500873115278131C830F1000030F20036
:100460008731D627813103302000B9000830B80029
:100470007730890B392AB80B392AB90B392A8731D9
:10048000FD27813103302000B9000830B8007730F3
:10049000890B482AB80B482AB90B482A013020009A
:1004A000B8003808BE07BF0906303E02031C592AAF
:1004B0005A2A1D2AC0011030B8003808C1001C306B
:1004C0004105B800CC303804B2003030B3000F30F2
:1004D000B4000030B5008731152781312030F1009C
:1004E0000330F2008731D627813103302000B90074
:1004F0000830B8007730890B7B2AB80B7B2AB90B00
:100500007B2A8731FD27813103302000B900083074
:10051000B8007730890B8A2AB80B8A2AB90B8A2A45
:1005200001302000B8003808C007C1090630400279
:10053000031C9B2A9C2A5F2A34302000B800F1302B
:10054000890BA02AB80BA02A003200302000B2008C
:100550000F30B3000F30B4000030B50087311527DD
:1005600081314030F1000630F2008731D6278131E9
:1005700015302000B9004B30B800BE30890BBE2AC0
:10058000B80BBE2AB90BBE2A00002000BA01BB017D
:100590000030BC000F30BD0003303C05B8000F3008
:1005A0003D05B9001C303804B20000303904B300F6
:1005B0000F30B4000030B500873115278131873105
:1005C000FD27813105302000B9000F30B800F1302F
:1005D000890BE82AB80BE82AB90BE82A4030F10069
:1005E0000630F2008731D627813105302000B9006E
:1005F0000F30B800F130890BFB2AB80BFB2AB90B7E
:10060000FB2A01302000BA070030BB3DBC09BD0900
:1006100000303B02083003193A02031C102B112B47
:10062000CC2A8731FD27813108000A302000AC0038
:100630000030AD000A30F1000030F2005C08F40038
:100640005B08F30085318625833172082000AF00F6
:100650007108AE008531F825833120002C08B800E0
:100660002D08B9000F30BA003808BA02BA0AF830BB
:10067000BB001F30BC003F2B3C0DBC0CBB0CBA0BAD
:100680003C2BE03020003B05B2007F303C05B3003E
:100690000F30B4000030B5008731152783310B309F
:1006A000F1000230F2008731D62783311530200067
:1006B000B9004B30B800BE30890B5C2BB80B5C2BFB
:1006C000B90B5C2B0000BA30F1000230F200873128
:1006D000D62783311F302000B9007130B8001E309A
:1006E000890B702BB80B702BB90B702B00000B30E3
:1006F000F1000230F2008731D62783310B30200021
:10070000B9002630B8005D30890B842BB80B842BE0
:10071000B90B842B0032BA30F1000230F20087317D
:10072000D62783310B302000B9002630B8005D3069
:10073000890B982BB80B982BB90B982B00321030E3
:10074000F1000330F2008731D62783310B302000CF
:10075000B9002630B8005D30890BAC2BB80BAC2B40
:10076000B90BAC2B00323F30F1000330F20087317F
:10077000D62783310B302000B9002630B8005D3019
:10078000890BC02BB80BC02BB90BC02B00328731A3
:10079000FD27833105302000B9000F30B800F1305B
:1007A000890BD02BB80BD02BB90BD02BBA30F10062
:1007B0000230F2008731D627833105302000B9009E
:1007C0000F30B800F130890BE32BB80BE32BB90BDA
:1007D000E32B1030F1000330F2008731D62783314C
:1007E00029302000B9009630B8007F30890BF62BF5
:1007F000B80BF62BB90BF62B8731FD27833115305B
:100800002000B9004B30B800BE30890B052CB80B66
:10081000052CB90B052C00002000DB01DC010800D1
:100820002000CA0160080319162C182C0130192C5D
:100830000030C9004908E0008431E5248431D0301B
:10084000F1000730F2008731D6278431593020007B
:10085000C9004E30890B2A2CC90B2A2C000020001D
:1008600060080319342C362C0130372C0030C900B5
:100870004908E0008431E5248431E830F100033098
:10088000F2008731D627843159302000C9004E301C
:10089000890B482CC90B482C000020006008031964
:1008A000522C542C0130552C0030C9004908E0006E
:1008B0008431E5248431A030F1000F30F20087311B
:1008C000D627843154302000C9001C30890B662C97
:1008D000C90B662C000001302000C9004908CA0776
:1008E0000A304A02031C752C762C122C8731FD2706
:1008F000843120006B036C0403197F2C802C842C22
:100900000130EB020030EC3B0130DB070030DC3D16
:1009100008000B30F1000230F2008731D627843115
:100920000630F6001330F500AE30890B952CF50B30
:10093000952CF60B952C8731FD2784310330F6007A
:100940008A30F5005630890BA32CF50BA32CF60B3F
:10095000A32C0B30F1000230F2008731D62784310E
:100960000630F6001330F500AE30890BB52CF50BD0
:10097000B52CF60BB52C4B30F1000230F20087316C
:10098000D62784310630F6001330F500AE30890BDF
:10099000C72CF50BC72CF60BC72C8730F1000130A4
:1009A000F2008731D62784310B30F6002630F5006F
:1009B0005E30890BD92CF50BD92CF60BD92C2000E5
:1009C000E301E30AE201E20A080020006208B8003D
:1009D000B9016008BA00BB01BA35BB0D0330BC00D9
:1009E0006F08BC02BC0A1C30BD000030BE00FB2CEE
:1009F0003E0DBE0CBD0CBC0BF82C1C3020003D0580
:100A0000BF0000303E05C0006E08C2006D08C10086
:100A10000530C135C20D890B092D3F084104C300C3
:100A200040084204C4003A084304C5003B0844049B
:100A3000C60038084504C70039084604C8005A08EB
:100A40004806031D252D590847060319282D292D71
:100A5000342D4808B3004708B2000F30B40000300E
:100A6000B50087311527843120004808DA0047088F
:100A7000D9000800783020006D05CB0000306E05ED
:100A8000CC004B084C040319462D472D662D8431AC
:100A9000102485312000600803194F2D502D5B2D47
:100AA0006F08803A7D3E0318562D572D5B2D01307F
:100AB000CB004B08EF07600803195F2D612D013053
:100AC000622D0030CB004B08E000852D8631622678
:100AD00085312000E00101306D05CB0002306E054C
:100AE000CC004B084C040319762D772D7C2DFE305D
:100AF000CB004B08EF07802DFF30CB004B08EF07F2
:100B0000EF1F832D842D852DE2010800F601F701EA
:100B10007108720403198D2D8E2DBD2DF801F80A70
:100B20009A2D0130F135F20D890B922D0130F5002F
:100B30007508F807F21F9D2D9E2D912D0130F63579
:100B4000F70D890B9F2D72087402031DA92D7108E2
:100B50007302031CAC2DAD2DB22D7108F302720887
:100B6000F43B76140130F236F10C890BB32D0130D1
:100B7000F802031DBC2DBD2D9E2D7708F2007608CE
:100B8000F100080000302000A3000030A200003077
:100B9000A1000030A000711CCE2DCF2DD82D7508DE
:100BA0002000A0077608A13D7708A23D7808A33D64
:100BB0000130F535F60DF70DF80D890BD92D013003
:100BC000F436F30CF20CF10C890BE02D740873046D
:100BD00072047104031DED2DEE2DCB2D2000230892
:100BE000F4002208F3002108F2002008F1000800B8
:100BF00020002C082D040319FE2DFF2D282EB101F5
:100C0000B10A0B2E0130AC35AD0D890B032E01302E
:100C1000B0003008B107AD1F0E2E0F2E022E2D088A
:100C20002F02031D152E2C082E02031C182E192E20
:100C30001D2E2C08AE022D08AF3B0130AD36AC0C9A
:100C4000890B1E2E0130B102031D272E282E0F2ED8
:100C50002F08AD002E08AC00080020006A08F40040
:100C60006908F3006808F2006708F1004C30F800EA
:100C70009530F7007F30F6002D30F5008531C22524
:100C80008631013071072000E7000030723DE80036
:100C90000030733DE9000030743DEA006708A600AB
:100CA0006808A7006908A8006A08A9001130A936D9
:100CB000A80CA70CA60C890B572E2708A500260800
:100CC000A4000800F701F430F1000130F200873190
:100CD000D62786310230F6000430F500BA30890B91
:100CE0006F2EF50B6F2EF60B6F2E0032C830F10011
:100CF0000030F2008731D62786310230F60004300A
:100D0000F500BA30890B822EF50B822EF60B822E5F
:100D100000320130F5007508F7070A307702031C2E
:100D2000922E932E632E080020000E18982E992ED6
:100D3000B42E5E08031D9D2E9E2EB42E78088A00C8
:100D400077080A0086312000DE01DE0A023020002A
:100D5000A1000430A000BA30890BAC2EA00BAC2E41
:100D6000A10BAC2E0000BF2E0E1CB72EB82EBF2E2E
:100D70005E080319BC2EBD2EBF2EDE01A62E080074
:100D800020000E19C42EC52EE02E5D08031DC92EAD
:100D9000CA2EE02E78088A0077080A0086312000E3
:100DA000DD01DD0A02302000A1000430A000BA30CD
:100DB000890BD82EA00BD82EA10BD82E0000EB2E1D
:100DC0000E1DE32EE42EEB2E5D080319E82EE92E0E
:100DD000EB2EDD01D22E0800FB007B08F90079081C
:100DE000F1002000640887313D278631003A031D59
:100DF000FA2EFB2E072F8F31B5278631F900FA0125
:100E00007908F3007A08F4008F31BC27863101306D
:100E1000F90079082000E40786312D26863120006C
:100E20002508AB002408AA0008002000B7012D2FD8
:100E300020008E1232080139B600B60E0E083606B2
:100E4000EF3936068E000130B336B20C890B242FF1
:100E50008E160130B6003608B7073508803A803C58
:100E6000031D342F34083702031C372F382F182F57
:100E700020008E128E158E110800F4000830F2004A
:100E80007208F500F6017408F2000730F236890B9B
:100E9000462F76357204F3007308F6000310F40D44
:100EA00071087602031C552F562F582F7108F60231
:100EB0000130F502031D5D2F5E2F432F76080800D9
:100EC00020006D1C642F652F6B2F00306D04ED002A
:100ED00008306E04EE000130ED35EE0D890B6C2FFD
:100EE0006E1D732F742F7A2F01306D04ED000030CA
:100EF0006E04EE002030F1000330F2008731D62777
:100F00008731080020006D1C862F872F8D2F003021
:100F10006D04ED0004306E04EE000130EE36ED0C91
:100F2000890B8E2F6E1D952F962F9C2F01306D04EF
:100F3000ED0000306E04EE002030F1000330F200CE
:100F40008731D6278731080022008C018D018E0160
:100F50003F3021008C00F0308D00C5308E00C03055
:100F600023008E008D0117308C0024008D018C0130
:100F70002100951322009D0108000130F000700847
:100F80002000E5070F306505F0007003031DC92F31
:100F9000CA2FD52FE50166080319CF2FD12F0130B5
:100FA000D22F0030F0007008E600080029001E175C
:100FB0007208F4007108F300F436F30CF436F30C05
:100FC000F436F30C7308F1007408F20071089B000A
:100FD00072089C00080021001508C03917389500D8
:100FE00020009501FC010B118B16BD30F10007307C
:100FF000F2008F31A9278731080029001E1308004D
:101F34001630210097000800323400340134003494
:101F440003347830210099002200960108007208B9
:101F54002100A1007108A000080064008001013183
:101F6400890BB02F003420001508F1007108F2002D
:101F7400720808007308FF3E2000E700FF30743D3C
:101F8400E800E901EA01080020005F080319CB2FEB
:101F9400CD2F0130CE2F0030F1007108DF00080092
:101FA400403029009E0001309F009A019901980158
:101FB4009C0183309B009E1708008731A4278F3132
:101FC4008F31A3278F318F319A278F318F31D227C9
:101FD4008F318731EB278F3108000B117C082000EB
:101FE40095002100200821040319F92FFA2FFF2F4F
:0C1FF40021088A0020080A008F31080034
:020000040001F9
:08000000FF3FFF3FFF3FFF3F00
:04000E00E43FFF3F8D
:00000001FF
